:020000040800F2
:1000000090100020893500083D0200083F020008DA
:1000100043020008470200084B02000800000000ED
:100020000000000000000000000000004F02000877
:1000300051020008000000005302000855020008A9
:10004000A3350008A3350008A3350008A335000830
:10005000A3350008A3350008F7160008A3350008EB
:10006000A33500081917000829170008A335000850
:10007000A3350008A3350008A3350008A335000800
:10008000A3350008A3350008A3350008A3350008F0
:10009000A3350008A3350008A33500083B17000866
:1000A000A3350008A3350008A3350008A3350008D0
:1000B0005702000879020008A3350008A33500089C
:1000C000A3350008A3350008A3350008A3350008B0
:1000D000A33500083103000875030008B9030008C0
:1000E00077170008A3350008A3350008A3350008DA
:1000F000A3350008A3350008A3350008A335000880
:10010000A3350008A3350008A3350008A33500086F
:10011000A3350008A3350008A3350008A33500085F
:10012000A3350008A3350008A3350008A33500084F
:10013000DFF80CD003F03AFA004800475F010008EE
:1001400090100020014607E041F2883200E0521E84
:10015000002AFCD14B1E99B20029F5DC704700F053
:100160003FFD01F07DF900F061FE00F06DFA00F056
:10017000B8FA01F0BAFA00F09BFD00F090F900F037
:10018000B8F9642000F068FD09E001F01DF801F005
:100190002CF803480078012801D101F0A9F9F4E70F
:1001A00000000020F0B50446104607E0C5B214F880
:1001B000016B6E4033F8166086EA20200E1EA1F116
:1001C0000101F3DCF0BD70B502460B46002041F2A0
:1001D000210419E0802114E010F4004F05D04FF6FF
:1001E000FF7505EA4000604003E04FF6FF7505EA41
:1001F000400015780D4200D060400D4601EBD576E9
:1002000071100029E8D1521C1D00A3F10103E1D1B6
:1002100070BD70B504460D46074B4FF6FF72294678
:100220002046FFF7BFFF70BD70B504460D46294656
:100230002046FFF7C8FF70BDEE350008704700BFCD
:10024000FEE700BFFEE700BFFEE700BFFEE7704726
:1002500070477047704710B50121880702F08DFE86
:1002600048B100F09BFD01F085F900F017FE012177
:10027000880702F093FE10BD10B501215F4802F01F
:100280007CFE002853D05E48007A012815D15D48D5
:100290000078002805DD5B480078401E5949087049
:1002A0000BE0002057490870012055494872084664
:1002B0004088C8800020087248805348007A01288E
:1002C00015D152480078002805DD50480078401EBE
:1002D0004E4908700BE000204C49087001204A4943
:1002E000487208464088C880002008724880484804
:1002F000007A012815D147480078002805DD4548D7
:100300000078401E434908700BE000204149087006
:1003100001203F49487208464088C8800020087282
:10032000488001F064FA0121344802F037FE10BD24
:1003300010B52021384802F0DFFF20B908213648E7
:1003400002F0DAFF50B1344802F06CFFC4B220462C
:1003500000F033FB2021304802F0DBFF40212E4823
:1003600002F0CAFF28B100F0CDFA40212A4802F07D
:10037000D0FF10BD10B52021284802F0BDFF20B9E4
:100380000821264802F0B8FF50B1244802F04AFF85
:10039000C4B2204600F081FB2021204802F0B9FFC2
:1003A00040211E4802F0A8FF28B100F0C4FA402105
:1003B0001A4802F0AEFF10BD10B52021184802F017
:1003C0009BFF20B90821164802F096FF50B114484F
:1003D00002F028FFC4B2204600F0A7FB20211048FD
:1003E00002F097FF40210E4802F086FF28B100F08E
:1003F000BBFA40210A4802F08CFF10BD0004004007
:100400004C000020030000205604002004000020BF
:100410006008002005000020003801400044004032
:100420000048004008B54FF4A06001F033FA1C20EA
:100430008DF8000001208DF8010000208DF80200E9
:1004400001208DF80300684601F029FA08BD08B5BF
:100450004FF4A06001F01EFA1D208DF8000001206D
:100460008DF801008DF802008DF80300684601F058
:1004700016FA08BD08B54FF4A06001F00BFA1E2073
:100480008DF8000001208DF8010002208DF8020097
:1004900001208DF80300684601F001FA08BD0EB591
:1004A0000121084601F015FE4FF0804001F06CFE7E
:1004B00041F28730ADF804004720ADF8000000207D
:1004C000ADF80600ADF8020069464FF0804001F03B
:1004D0002FFF0121880702F04DFD012211469007F0
:1004E00002F09DFA0121880702F07EFAFFF79AFFD9
:1004F0000EBD0EB50121022001F0EBFD244801F0F4
:1005000043FE40F2CF70ADF804004720ADF8000084
:100510000020ADF80600ADF8020069461C4801F065
:1005200007FF01211A4802F025FD01221146184853
:1005300002F075FA0121164802F056FAFFF787FF1C
:100540000EBD0EB50121042001F0C3FD114801F0DC
:100550001BFEC720ADF804004720ADF800000020C6
:10056000ADF80600ADF8020069460A4801F0E0FE69
:100570000121084802F0FEFC01221146054802F064
:100580004EFA0021034802F02FFAFFF773FF0EBD69
:1005900000040040000800400020FD490880488019
:1005A0008880C8800872487270470020F949088026
:1005B00048808880C8800872487270470020F649D9
:1005C000088048808880C88008724872704708B5E3
:1005D0004FF4A06001F05EF925208DF800000020A6
:1005E0008DF801008DF8020001208DF803006846A7
:1005F00001F055F908BD08B54FF4A06001F04AF9C3
:1006000026208DF8000000208DF8010001208DF8D3
:1006100002008DF80300684601F041F908BD08B5F5
:100620004FF4A06001F036F927208DF8000001207A
:100630008DF8010002208DF8020001208DF80300E2
:10064000684601F02CF908BD00B585B0012144F2DF
:10065000040001F031FD4FF40070ADF810001820D7
:100660008DF8130003208DF8120004A9CB4801F087
:100670006DFA4FF48060ADF8100004208DF813007F
:1006800004A9C64801F062FA4FF496400090002099
:10069000ADF80400ADF80600ADF80800ADF80C00A8
:1006A0000C20ADF80A006946BD4802F0BEFC4021AE
:1006B000BB4802F02EFE012240F22551B84802F05C
:1006C0004CFD012240F22661B54802F046FD0121B1
:1006D000B34802F036FDFFF77AFFFFF75DFF05B084
:1006E00000BD00B585B00121042001F0E5FC012129
:1006F000480401F0EEFC0420ADF8100003208DF852
:10070000120018208DF8130004A9A44801F01EFA65
:100710000820ADF8100004208DF8130004A99F48AC
:1007200001F014FA4FF4964000900020ADF8040058
:10073000ADF80600ADF80800ADF80C000C20ADF8DF
:100740000A006946974802F070FC012240F22551E8
:10075000944802F002FD012240F22661914802F025
:10076000FCFC40218F4802F0D4FD01218D4802F0AD
:10077000E8FCFFF740FFFFF718FF05B000BD00B52C
:1007800085B00121082001F097FC0121880401F0C7
:10079000A0FC4FF48060ADF8100003208DF812002B
:1007A00018208DF8130004A97F4801F0CFF94FF409
:1007B0000060ADF8100004208DF8130004A97A48F9
:1007C00001F0C4F94FF4964000900020ADF8040009
:1007D000ADF80600ADF80800ADF80C000C20ADF83F
:1007E0000A006946714802F020FC012240F22551BE
:1007F0006E4802F0B2FC012240F226616B4802F022
:10080000ACFC4021694802F084FD0121674802F0F8
:1008100098FCFFF704FFFFF7D1FE05B000BD70B5EF
:1008200004460D46E1B25E4802F0F8FC00BF8021AC
:100830005B4802F061FD0028F9D0204670BD10B57C
:1008400004462146564802F0E9FC00BF8021544886
:1008500002F052FD0028F9D010BD10B504460BE09F
:1008600014F8011B4E4802F0D9FC00BF80214C480F
:1008700002F042FD0028F9D020780028F0D110BD08
:1008800010B504462146474802F0C8FC00BF80214D
:10089000444802F031FD0028F9D010BD10B50446DF
:1008A0000BE014F8011B3F4802F0B8FC00BF8021A8
:1008B0003C4802F021FD0028F9D020780028F0D132
:1008C00010BD10B504462146384802F0A7FC00BF11
:1008D0008021364802F010FD0028F9D010BD10B577
:1008E00004460BE014F8011B304802F097FC00BFEF
:1008F00080212E4802F000FD0028F9D02078002841
:10090000F0D110BD10B5224800882149898888425D
:100910000CDA1F4802880A30815C214802F07EFC14
:100920001B480088401C1A49088003E00020184931
:100930008880088010BD10B5164800881549898840
:1009400088420CDA134802880A30815C154802F0AC
:1009500065FC10480088401C0E49088003E0002018
:100960000C498880088010BD10B50B4800880A49E2
:10097000898888421CDA084802880A30815C0B4862
:1009800002F04CFC04480088401C0349088013E036
:100990004C000020560400206008002000080140A0
:1009A0000038014000440040000C01400048004075
:1009B000002082498880088010BD8149497A002939
:1009C00062D17F49498831B901217D4A11720A21DA
:1009D0007C4A11700EE07B49097800290ADC01216C
:1009E000774A51720021117211464988D180002145
:1009F000518070470A21734A117071494A8801F287
:100A00000A2188546E494988491C6D4A5180114613
:100A10004988022922DB11464988891E02F20A22EE
:100A2000515C694A117066494988491E674A515CA0
:100A3000674A1170644909780D290FD11146097868
:100A40000A290BD101215E4A517211464988D18091
:100A50000021518011720A215A4A1170584949885F
:100A6000B1F5007F17DB40F2FF11554A518001219B
:100A7000517211464988491CD18000215180117260
:100A80000A21504A117006E000214D4A11720A21D4
:100A90004C4A1170ADE700BFABE74E49497A0029D7
:100AA0003AD14C49498831B901214A4A11720A2187
:100AB000494A11700EE04849097800290ADC0121F1
:100AC000444A51720021117211464988D180002197
:100AD000518070470A21404A11703E494A8801F20C
:100AE0000A2188543B494988491C3A4A5180114699
:100AF0004988B1F5007F16DB40F2FF1151800121DA
:100B0000517211464988491CD180002151801172CF
:100B10000A21314A117006E000212E4A11720A2181
:100B20002D4A1170D5E700BFD3E72449497A00293F
:100B30003AD12249498831B90121204A11720A214A
:100B4000264A11700EE02549097800290ADC0121A6
:100B50001A4A51720021117211464988D180002130
:100B6000518070470A211D4A117014494A8801F2C8
:100B70000A21885411494988491C104A518011465C
:100B80004988B1F5007F16DB40F2FF115180012149
:100B9000517211464988491CD1800021518011723F
:100BA0000A210E4A117006E00021044A11720A213E
:100BB0000A4A1170D5E700BFD3E7000060080020A3
:100BC0004C000020030000200100002056020020FD
:100BD0000200002056040020040000200500002030
:100BE00010B56FF0040000F0A5FE2D4800682D49F7
:100BF000B0FBF1F02C4908700846007800EB40018A
:100C0000C1EBC0104FF6FF7101EAC0002749088010
:100C100010BD0146244A12784A434FF0E0235A613E
:100C200000229A611A46126942F001021A6100BF5D
:100C30004FF0E022106910F0010F02D010F4803F55
:100C4000F6D04FF0E022126922F001024FF0E023CB
:100C50001A6100229A6170470146144A12884A4379
:100C60004FF0E0235A6100229A611A46126942F05D
:100C700001021A6100BF4FF0E022106910F0010F6D
:100C800002D010F4803FF6D04FF0E022126922F03B
:100C900001024FF0E0231A6100229A6170470000C0
:100CA0003800002000127A00060000200800002012
:100CB00008B50121042001F0FFF90220ADF8000081
:100CC00010208DF8030001208DF8020069464C4881
:100CD00000F03CFF0121042001F0EEF90120ADF805
:100CE000000010208DF8030001208DF802006946F5
:100CF000434800F02BFF0221414800F0D2FF0120C1
:100D00004049087000204049087008BD10B53D48B2
:100D1000007800281DDD3D480078401E3B490870E2
:100D200008460078002814DC3948007838B10221E0
:100D3000334800F0B8FF00203549087006E0022172
:100D40002F4800F0AEFF01203149087032202F49B2
:100D5000087010BD10B52C48007800281DDD2D4806
:100D60000078401E2B49087008460078002814DCE3
:100D70002948007838B10121214800F094FF002073
:100D80002549087006E001211D4800F08AFF012076
:100D90002149087032201F49087010BD10B5FFF7B7
:100DA000B5FFFFF7D7FF1D480078012811D11C4877
:100DB0000088401C1A49088008460088642808DB1F
:100DC00002210F4800F06DFF0020144908701449FB
:100DD000088014480078012811D113480088401C6D
:100DE0001149088008460088642808DB012104486E
:100DF00000F057FF00200B4908700B49088010BD18
:100E00000008014012000020130000200A0000200A
:100E10000B0000200C0000200D000020140000201A
:100E20000E000020150000201000002008B5012150
:100E3000042001F041F94FF40060ADF800004820B3
:100E40008DF8030001208DF802006946FE4800F08D
:100E50007DFE0121042001F02FF94FF48050ADF800
:100E6000000048208DF8030001208DF8020069463B
:100E7000F54800F06BFE0121082001F01DF94FF448
:100E80008070ADF8000048208DF8030001208DF837
:100E900002006946ED4800F059FE08BD10B5EC4867
:100EA000007828BB4FF40061E74800F0E0FEC8B9C5
:100EB000E8480078401CE7490870084600780A288E
:100EC0003BDB4FF40061E04800F0D1FE18B901208F
:100ED000DF49087002E00020DD4908700020DD498C
:100EE00008702AE00020DA490870DA49087024E026
:100EF0004FF40061D44800F0BAFE01281AD1D54859
:100F00000078401CD3490870084600780A2814DB92
:100F10004FF40061CC4800F0AAFE012803D1002064
:100F2000CB49087002E00120C94908700020C94976
:100F3000087002E00020C7490870C748807910BBDC
:100F40004FF48051C04800F092FEC8B9C348007801
:100F5000401CC2490870084600780A2813DB4FF489
:100F60008051B94800F083FE18B90120BA49887150
:100F700002E00020B84988710020B849087002E0FA
:100F80000020B649087010BD70B5B548C08810285B
:100F900001D0002070BDB248C088811EB148FFF763
:100FA00043F90546AE48C088401EAE490A5CAC48CD
:100FB000C088801E085C02EB0020A84256D10024A5
:100FC00005E0A848005DA8490855601CC4B2102C73
:100FD000F7DBA548807920B1012803D0022806D18B
:100FE00004E005E00020A049887101E000E000BFB6
:100FF00000BF9D48007A30B1012805D0022804D0F6
:10100000032804D102E003E002E001E000E000BFB9
:1010100000BF9548807A30B1012805D0022804D05D
:10102000032804D102E003E002E001E000E000BF99
:1010300000BF8D48007B20B1012803D0022811D1C8
:1010400008E010E08848007B884908700020864945
:10105000087308E08448007B8449087000208249B6
:10106000087300E000BF00BF012093E7002091E774
:101070007F48C088032801DA0020704701207B499F
:101080000870022048704FF4C87088804FF47A606E
:1010900048800120F1E770B5002401222146641C3C
:1010A0006F480A30425458222146641C425452224E
:1010B0002146641C425431222146641C425435228C
:1010C0002146641C425436222146641C4254372275
:1010D0002146641C425438222046611CCCB260492F
:1010E0000A310A5401222046611CCCB25C490A3103
:1010F0000A54FF222046611CCCB259490A310A54D5
:101100002046611CCCB256490A310A542046611C63
:10111000CCB253490A310A542046611CCCB2504922
:101120000A310A545248C08802122046611CCCB2CF
:101130004B490A310A544E4882792046611CCCB290
:1011400047490A310A54002507E04A48415D2A19F7
:1011500043480A308154681CC5B24548C088A8423B
:10116000F3DC4348C08820443D4988800846818894
:101170000A30FFF759F806463112394882888088CC
:10118000401C374B988003F10A0081540A3882884A
:101190008088401C988003F10A008654002034495E
:1011A000C8800A2034490870002019464880088009
:1011B000084602880088401C188001F10A00815C02
:1011C0002E4802F02BF870BD10B52948407A01284E
:1011D0000AD1FFF74DFF20B1002029498871FFF7A0
:1011E0005AFF00202249487210BD10B51C48407AB1
:1011F000012815D1FFF7C8FE70B100201849C8803A
:101200000A20204908700120184948704FF47A607C
:10121000488001201A49087200201149487200E0F4
:1012200010BD00BFFCE710B510480078022837D188
:101230000D48407B022802DA02200B4948730A4815
:10124000407B642148431FE000080140000C01403E
:101250000000002016000020840C00201700002051
:101260004C000020560200206A0C00201C000020C8
:1012700056040020600600200400002000380140D1
:101280007A0C002003000020694908800846008885
:10129000684908800120684908704FF47A604880E6
:1012A00065480078012832D163484088002803DC73
:1012B00000206149087048705F484078012805D1D6
:1012C0005D484088401E5C4948801FE05A4840788D
:1012D00002281BD158488088002812DC0520574975
:1012E0000870002054490870554908725549087023
:1012F0000221554800F0D5FC00205149887253491D
:1013000008704D488088401E4B49888010BD494870
:101310000088002804DD47480088401E45490880B1
:1013200000BFF3E770B5002401222146641C484841
:10133000425458222146641C425452222146641CC5
:10134000425431222146641C425435222146641CF9
:10135000425436222146641C425437222146641CE2
:10136000425438222046611CCCB239490A54012229
:101370002046611CCCB236490A54FF222046611C2B
:10138000CCB233490A542046611CCCB230490A54CD
:101390002046611CCCB22E490A542046611CCCB2B6
:1013A0002B490A5400222046611CCCB228490A5419
:1013B00008222046611CCCB225490A54002505E0CC
:1013C000FF212A1922488154681CC5B2082DF7DB79
:1013D0002048C08820441E490A39888008468188F0
:1013E0000A30FEF721FF0646311219480A38828872
:1013F0008088401C164B0A3B9880154881540A3857
:1014000082888088401C9880114886540A2012499E
:101410000870002019464880088008460288008825
:10142000401C18800A48815C0C4801F0F7FE70BD32
:101430001A000020180000201C00002013000020CB
:101440006A0C002014000020000801401500002054
:1014500056000020560400200400002000380140FF
:1014600008B50121082000F027FE4FF48060ADF898
:10147000000048208DF8030001208DF80200694625
:101480005A4800F063FB0121082000F015FE4FF4DC
:101490000060ADF8000048208DF8030001208DF8B1
:1014A00002006946514800F051FB0121082000F07C
:1014B00003FE0120ADF8000048208DF80300012054
:1014C0008DF802006946494800F040FB01210820E0
:1014D00000F0F2FD4020ADF8000010208DF8030070
:1014E00001208DF802006946404800F02FFB08BD3E
:1014F00010B53F488079012809D18C203D490880EA
:1015000001208871487200208880394988713948E3
:10151000807901280ED13748008858B90120354913
:10152000C871FFF7FFFE4021304800F0BAFB0020F1
:10153000304988712F488088C8281ADB2D48007AE6
:1015400001280AD14021294800F0ADFB002028499C
:101550000870C8702749087206E04021234800F04F
:10156000A0FB00202249C87000202249C871888051
:10157000487210BD10B51F480088002804DD1D48C2
:101580000088401E1B4908801A48407A012804D16F
:1015900018488088401C1749888015480078012821
:1015A0000CD115480078401C134908700846007893
:1015B000142803DB002008700D4908700C48C0781F
:1015C000012811D10D480078401C0C4908700846CC
:1015D0000078142808DB002008704021034800F040
:1015E00060FB00200249C87010BD0000000C0140E3
:1015F000840C00207A0C0020220000202300002010
:101600001FB50121084600F057FD0021012000F020
:10161000B1FB0121082000F04FFD0120ADF80000D2
:1016200048208DF8030001208DF802006946974894
:1016300000F08CFA0120029000208DF80C000C20A4
:101640008DF80D0001208DF80E0002A800F09EF923
:1016500006208DF8040002208DF8050000208DF88A
:10166000060001208DF8070001A800F018F91FBD41
:101670001FB50121084600F01FFD0121082000F0E0
:101680001BFD4FF44060ADF8000048208DF80300CA
:1016900001208DF8020069467C4800F057FA0A21C3
:1016A000012000F067FB0B21012000F063FB4FF4E9
:1016B0004060029000208DF80C000C208DF80D0089
:1016C00001208DF80E0002A800F060F928208DF8A6
:1016D000040002208DF805008DF8060001208DF829
:1016E000070001A800F0DBF81FBD10B5FFF788FF69
:1016F000FFF7BEFF10BD10B5012000F0ADF938B105
:101700006348C07920B901216148C171002101728B
:10171000012000F0B2F910BD10B5082000F09CF9CE
:10172000082000F0AAF910BD10B5102000F094F9BF
:1017300010B1102000F0A1F910BD10B5402000F04C
:101740008BF918B1402000F098F913E04FF4807045
:1017500000F082F920B14FF4807000F08EF909E0BA
:10176000202000F08AF9802000F087F94FF4007003
:1017700000F083F910BD10B54FF4806000F06CF9F3
:1017800060B14348C07920B901214148017100216D
:1017900041714FF4806000F070F927E04FF4006071
:1017A00000F05AF960B13A48C07920B901203849AF
:1017B0004870002088704FF4006000F05EF915E07A
:1017C0004FF4804000F048F920B14FF4804000F021
:1017D00054F90BE04FF4805000F04FF94FF40050F3
:1017E00000F04BF94FF4004000F047F910BD10B580
:1017F0002748C079012814D12548007A401CC1B27D
:1018000023480172007A04280BDB01211F4800F0F5
:101810002EFA10B901201E49887100211C48C1719F
:1018200001721B484078012815D119488078401C66
:10183000174988700846807804280CDB4FF4006153
:10184000124800F014FA10B9012011490870002064
:101850000F49487088700E480079012815D10C484E
:101860004079401CC1B20A484171407904280CDB20
:101870004FF48061054800F0FAF910B901200449DD
:10188000C870002102480171417110BD000C014077
:10189000840C002031490143314A1160704770B512
:1018A000002100230F22C4780CB32D4C246804F4CB
:1018B000E064C4F5E064210AC1F10403CA4044783D
:1018C00004FA03F18478144021430901254C067879
:1018D000A155047804F01F050124AC4005786D1172
:1018E0004FF0E02606EB8505C5F8004109E00478D5
:1018F00004F01F050124AC401B4D0678761145F815
:10190000264070BD194A0A400243154B1B1F1A603E
:10191000704739B1124A121D12680243104B1B1D49
:101920001A6006E00E4A121D126882430C4B1B1D02
:101930001A607047042808D14FF0E021096941F08E
:1019400004014FF0E022116107E04FF0E021096946
:1019500021F004014FF0E022116170470000FA0508
:101960000CED00E000E400E080E100E080FFFF1FFC
:10197000002044490860091D0860091D0860091D10
:10198000086041483F4914310860704700213D49D3
:101990008279002A3AD00A46126803689A430B46B5
:1019A0001A600A1D126803689A430B1D1A600279B7
:1019B00011440A6803681A430A60324A08321268FE
:1019C00003689A432F4B08331A601A1D1268036884
:1019D0009A432C4B0C331A604279102A0ED11A1FED
:1019E000126803681A43274B08331A601A1D1268DD
:1019F00003681A43234B0C331A600DE021494279E6
:101A000011440A6803681A430A6005E00279114428
:101A10000A6803689A430A607047002101600171F7
:101A20000C214171002181717047164910310968FC
:101A30000143144A10321160704701460020114AD8
:101A4000143212680A4201D0012000E000207047E1
:101A50000C49143108607047014600200022094BF0
:101A60001B6803EA0102074B14331B680B4202D0C8
:101A70000AB1012000E000207047024914310860DB
:101A80007047000000040140FFFF0F0010B504463E
:101A9000CA48844208D10121042000F027FB00211C
:101AA000042000F023FB46E0C548844208D1012110
:101AB000082000F01BFB0021082000F017FB3AE093
:101AC000C048844208D10121102000F00FFB002102
:101AD000102000F00BFB2EE0BB48844208D101210E
:101AE000202000F003FB0021202000F0FFFA22E07C
:101AF000B648844208D10121402000F0F7FA0021C5
:101B0000402000F0F3FA16E0B148844208D10121E8
:101B1000802000F0EBFA0021802000F0E7FA0AE0D4
:101B2000AC48844207D10121801500F0DFFA002182
:101B3000A01500F0DBFA10BD10B50121084600F039
:101B4000D5FA0021012000F0D1FA10BD2DE9F041B5
:101B5000024600250026002000230024002791F8DB
:101B600003C00CF00F0591F803C01CF0100F03D058
:101B700091F802C04CEA050591F800C0BCF1000FD5
:101B800031D0146800202BE04FF0010C0CFA00F368
:101B9000B1F800C00CEA03069E4220D183004FF04A
:101BA0000F0C0CFA03F7BC4305FA03FC4CEA0404DF
:101BB00091F803C0BCF1280F06D14FF0010C0CFACC
:101BC00000FCC2F814C00AE091F803C0BCF1480F51
:101BD00005D14FF0010C0CFA00FCC2F810C0401CFB
:101BE0000828D1D31460B1F800C0BCF1FF0F34DD78
:101BF000546800202EE000F1080C4FF0010808FAAC
:101C00000CF3B1F800C00CEA03069E4221D1830018
:101C10004FF00F0C0CFA03F7BC4305FA03FC4CEA37
:101C2000040491F803C0BCF1280F05D100F1080CA1
:101C300008FA0CF8C2F8148091F803C0BCF1480F00
:101C400007D100F1080C4FF0010808FA0CF8C2F8AF
:101C50001080401C0828CED35460BDE8F0814FF6B8
:101C6000FF710180022181700421C170704702461A
:101C7000002093680B4201D0012000E00020704753
:101C80000146886880B2704702460020D3680B4244
:101C900001D0012000E0002070470146C86880B2F2
:101CA000704701617047416170470AB1016100E00E
:101CB00041617047C16070474FF480320A438261CE
:101CC0008161826182698269704702460020424BCD
:101CD00018684FF68073184040EA021008433E4BE4
:101CE000186070473D49C8617047F0B50A46002347
:101CF00000240021002500F00046B6F1004F02D17B
:101D0000354EF16901E0344E7168C0F3034583B28A
:101D100000F44016B6F5401F08D121F070612E4E38
:101D2000766826F070662C4F7E6012E000F4801614
:101D3000B6F5801F06D1032606FA05F4A14341F04B
:101D4000706106E0460D360103FA06F6B14341F034
:101D5000706122B1460D360103FA06F6314300F0F8
:101D60000046B6F1004F02D11B4EF16101E01A4E60
:101D70007160F0BD30B500228B071C0F0F2303FAF2
:101D800004F2154B08338C1053F824309343124C53
:101D900008348D1044F8253023468C1053F8243035
:101DA0008C07240F00FA04F423430B4C08348D10E5
:101DB00044F8253030BD0A490860704700080140EA
:101DC000000C0140001001400014014000180140C7
:101DD000001C0140002001400000014000002042A2
:101DE000DC002042DD48006840F00100DB4908606B
:101DF00008464068DA490840D84948600846006803
:101E0000D8490840D54908600846006820F4802079
:101E100008600846406820F4FE0048604FF41F0048
:101E200088607047CD49096821F48031CB4A116040
:101E30001146096821F480211160B0F5803F03D07C
:101E4000B0F5802F0ED106E0C449096841F4803115
:101E5000C24A116007E0C149096841F4A021BF4AA4
:101E6000116000E000BF00BF704710B501460022BE
:101E7000002300204A11012A02D1B84C236806E051
:101E8000022A02D1B54C236A01E0B44C636A01F026
:101E90001F02012494401C4201D0012000E00020D8
:101EA00010BD38B5002000900024002500BF31206F
:101EB000FFF7DBFF05460098401C00900098B0F546
:101EC000A06F01D0002DF2D03120FFF7CEFF08B176
:101ED000012400E00024204638BD014600209F4A2E
:101EE000106820F0F80040EAC100106070479E4979
:101EF0000860704702460020984B586820F47C1018
:101F000042EA01031843954B5860704796490866AA
:101F1000704701460020914A506820F003000843B2
:101F2000506070478D48406800F00C0070470146D3
:101F300000208A4A506820F0F00008435060704743
:101F400001460020854A506820F4E0600843506054
:101F5000704701460020814A506820F4605040EAF2
:101F6000C1005060704729B17C4A527A02437B4BD2
:101F70005A7204E0794A527A8243784B5A72704717
:101F80007A490860704701460020744A506820F47E
:101F900040400843506070470021754A11706F4AF5
:101FA00082F82010012802D0042808D103E0012182
:101FB0006F4A117004E005216D4A117000E000BF06
:101FC00000BF70476B49086070476449096A014364
:101FD000624A11627047674944390860704730B5FA
:101FE00000210022002400235C4D6D6805F00C01E7
:101FF00021B1042905D0082923D105E05E4D0560F3
:1020000022E05D4D05601FE0544D6D6805F47012CF
:10201000524D6D6805F48034022505EB92421CB9DF
:10202000564D554305600BE04C4D6D6815F4003F6F
:1020300003D0524D5543056002E04F4D55430560B6
:1020400002E04D4D056000BF00BF444D6D6805F0D6
:10205000F00109094A4D6B5C0568DD4045603F4D64
:102060006D6805F4E061090A454D6B5C4568DD402B
:1020700085603A4D6D6805F46051C90A404D6B5C4E
:102080004568DD40C560354D6D6805F44041890BFC
:102090003C4D6B5CC568B5FBF3F5056130BD29B1FE
:1020A0002E4A526902432D4B5A6104E02B4A526971
:1020B00082432A4B5A61704729B1284A92690243E8
:1020C000264B9A6104E0254A92698243234B9A6128
:1020D000704729B1214AD2690243204BDA6104E0FA
:1020E0001E4AD26982431D4BDA61704729B11B4AEF
:1020F000D2680243194BDA6004E0184AD26882437E
:10210000164BDA60704729B1144A12690243134B27
:102110001A6104E0114A12698243104B1A61704738
:1021200014494039086070470F49C86470470B492B
:10213000C87170470948406A40F08070074948629A
:10214000704701460020054A92680A4201D00120EA
:1021500000E000207047014988727047001002407B
:102160000000FFF8FFFFF6FE00004242D8004242A6
:10217000201002408004424200127A0000093D0013
:10218000240000203400002010B50446FE4884429C
:1021900008D10121C014FFF7A9FF0021E014FFF7C7
:1021A000A5FFC4E0B4F1804F08D101210846FFF734
:1021B000AAFF00210120FFF7A6FFB8E0F348844200
:1021C00008D101210220FFF79EFF00210220FFF726
:1021D0009AFFACE0EE48844208D101210420FFF7C9
:1021E00092FF00210420FFF78EFFA0E0E94884421F
:1021F00008D101210820FFF786FF00210820FFF702
:1022000082FF94E0E448844208D101211020FFF7C6
:102210007AFF00211020FFF776FF88E0DF48844234
:1022200008D101212020FFF76EFF00212020FFF7B9
:102230006AFF7CE0DA48844208D101214014FFF7AC
:1022400055FF00216014FFF751FF70E0D54884422C
:1022500009D10121C804FFF749FF00214FF40020F4
:10226000FFF744FF63E0D048844209D1012108050B
:10227000FFF73CFF00214FF48010FFF737FF56E0D7
:10228000CA48844209D101214805FFF72FFF0021E8
:102290004FF40010FFF72AFF49E0C548844208D1F7
:1022A00001214020FFF72FFF00214020FFF72BFFE7
:1022B0003DE0C048844208D101218020FFF723FF80
:1022C00000218020FFF71FFF31E0BB48844208D186
:1022D00001218015FFF717FF0021A015FFF713FF5D
:1022E00025E0B648844209D101210804FFF7FEFE2B
:1022F00000214FF48030FFF7F9FE18E0B048844227
:1023000009D101214804FFF7F1FE00214FF400300C
:10231000FFF7ECFE0BE0AB48844208D101218804B2
:10232000FFF7E4FE00214FF48020FFF7DFFE10BD31
:1023300000220288944B98420ED0994B98420BD0C1
:10234000B0F1804F08D0914B984205D0904B984205
:1023500002D0904B984204D14FF68F731A404B88AD
:102360001A438D4B984207D08C4B984204D04FF6BD
:10237000FF431A40CB881A4302808B8883850B88E1
:102380000385814B98420BD0854B984208D08B4BEC
:10239000984205D08A4B984202D08A4B984201D18C
:1023A0000B7A038601238382704770B500240022D4
:1023B0000023058C4FF6FE7635400584028C838819
:1023C000048B4FF68F752C40B51E2C400D882C4386
:1023D000751E2A400D892A434D882A436A4DA8421A
:1023E0000BD06F4DA84208D0744DA84205D0744D53
:1023F000A84202D0734DA84213D14FF6F7752A4078
:102400004D892A434FF6FB752A408D882A434FF6A3
:10241000FF652B404FF6FF552B408D892B43CD890F
:102420002B4383800483CD888586028470BD70B57C
:10243000002400220023058C4FF6EF7635400584FA
:10244000028C8388048B48F6FF752C404FF6FF45BD
:102450002C400D884FF6FF7606EA05252C434FF6F3
:10246000DF752A400D8906EA05152A434D8806EADC
:1024700005152A43444DA84202D0494DA8421DD11A
:102480004FF67F752A404D894FF6FF7606EA05150F
:102490002A434FF6BF752A408D8806EA05152A4360
:1024A0004FF6FF352B404FF2FF752B408D8906EA22
:1024B00085052B43CD8906EA85052B43838004835C
:1024C000CD880587028470BD70B5002400220023EA
:1024D000058C4FF6FF6635400584028C8388848B1B
:1024E0004FF68F752C404FF6FC752C400D882C4311
:1024F0004FF6FF552A400D894FF6FF7606EA05256F
:102500002A434D8806EA05252A431F4DA84202D0DA
:10251000234DA8421DD14FF2FF752A404D894FF639
:10252000FF7606EA05252A434FF6FF352A408D88B7
:1025300006EA05252A434EF6FF752B404DF6FF753A
:102540002B408D8906EA05152B43CD8906EA051532
:102550002B4383808483CD888587028470BD70B5CA
:10256000002200230024058C4EF6FF7635400584BA
:10257000038C8488828B48F6FF752A404FF6FF450E
:102580002A400D8820E00000002C0140000400409B
:1025900000080040000C0040001000400014004003
:1025A00000340140004C0140005001400054014003
:1025B00000180040001C0040002000400040014086
:1025C00000440140004801404FF6FF7606EA052529
:1025D0002A434DF6FF752B400D8906EA05352B433E
:1025E0004D8806EA05352B43FA4DA84202D0FA4D34
:1025F000A84208D14BF6FF752C408D894FF6FF7627
:1026000006EA85152C4384808283CD88A0F840504B
:10261000038470BD828B4FF2FF331A408283828B1A
:102620004FF6FF7303EA01231A4382837047F0B524
:102630000C461546002200210026078C4EF6FF7C32
:1026400007EA0C070784828B018C4FF6FF7707EAB5
:10265000043640F6FF473A404FF6FF7707EA052772
:102660003A434FF6FF7707EA03373A43D94FB84268
:102670000ED0D94FB8420BD0B0F1804F08D0D74F11
:10268000B84205D0D64FB84202D0D64FB84206D194
:102690004DF6FF77394046F48057394305E047F659
:1026A000FF57394044F48057394382830184F0BD99
:1026B000828B4FF6F3731A408283828B0A438283A4
:1026C0007047F0B50C461546002200210026078C05
:1026D0004FF6FF6C07EA0C070784828B018C4FF6DC
:1026E000FF7707EA04264FF60C773A404FF6FF775C
:1026F00007EA03172F433A43B64FB8420ED0B64FFE
:10270000B8420BD0B0F1804F08D0B44FB84205D0DA
:10271000B34FB84202D0B34FB84206D14FF6FF577D
:10272000394046F48077394305E04FF2FF5739408E
:1027300044F48077394382830184F0BD028B4FF2E9
:10274000FF331A400283028B4FF6FF7303EA012323
:102750001A4302837047F0B50C461546002200214B
:102760000026078C4FF6EF7C07EA0C070784028BE4
:10277000018C4FF6FF7707EA041640F6FF473A4010
:102780004FF6FF7707EA03373A434FF6FF7707EA3A
:1027900005273A438F4FB8420ED08F4FB8420BD027
:1027A000B0F1804F08D08D4FB84205D08C4FB84261
:1027B00002D08C4FB84206D14FF6DF77394046F051
:1027C0001007394305E04FF65F77394044F01007B2
:1027D000394302830184F0BD028B4FF6F3731A4034
:1027E0000283028B0A4302837047F0B50C461546FC
:1027F00000220021068C4FF6FE773E400684028BB5
:10280000018C4FF60C7632407E1C06EA03162E43EE
:102810003243704EB0420ED06F4EB0420BD0B0F18A
:10282000804F08D06D4EB04205D06D4EB04202D000
:102830006C4EB04206D14FF6FD76314044F00106B1
:10284000314305E04FF6F576314044F0010631435F
:1028500002830184F0BD70B505460C465D48854293
:102860000ED05D4885420BD0B5F1804F08D05B4853
:10287000854205D05A48854202D05A48854200D147
:1028800000E000BF208850B92389A28861882846CB
:10289000FFF7ABFFE1882846FFF79EFF25E0208881
:1028A00004280AD12389A28861882846FFF753FFAC
:1028B000E1882846FFF742FF17E0208808280AD160
:1028C0002389A28861882846FFF7FBFEE188284615
:1028D000FFF7EEFE09E02389A28861882846FFF70A
:1028E000A6FEE1882846FFF795FE70BD2DE9F04170
:1028F00005460C4600260127608808B9022600E03C
:102900000026A088012801D1022700E001272088A5
:10291000A0B92389A28861882846FFF766FFE1886D
:102920002846FFF759FF23893A4631462846FFF7E4
:1029300012FFE1882846FFF701FF13E02389A288F0
:1029400061882846FFF707FFE1882846FFF7F6FE73
:1029500023893A4631462846FFF747FFE188284653
:10296000FFF73AFFBDE8F0810A884B881A438B884D
:102970001A43CB881A430B891A434B891A438B8914
:102980001A43A0F8442070474FF6FF718180002160
:102990000180C18041800172704700210180418027
:1029A0008180C180018141818181C1817047002185
:1029B00001804180012181800021C1800181704717
:1029C0000021018041808180C1800181418181811C
:1029D00070470000002C014000340140000400401A
:1029E00000080040000C004021B1028842F00102C2
:1029F000028004E002884FF6FE731A40028070479E
:102A000031B1B0F8442042F40042A0F8442005E07F
:102A1000B0F84420C2F30E02A0F8442070471AB167
:102A200083890B43838102E083898B4383817047D1
:102A30008182704741EA0203A0F8483070471AB11A
:102A400083890B43838102E083898B4383817047B1
:102A500001894FF6F8721140018170470A46002142
:102A600001894FF68F73194011430181704730B5CA
:102A700004460D4629462046FFF7F0FF208940F026
:102A80000700208130BD2DE9F04104460D46164671
:102A90001F46602D06D13B46012231462046FFF7F6
:102AA0005AFE05E03B46012231462046FFF79DFED7
:102AB00029462046FFF7D2FF208940F007002081F9
:102AC000BDE8F08130B50C4600210189C9B24FF64E
:102AD000FF7505EA0325154325432943018130BDD0
:102AE0002DE9F04105460E46174698460024434618
:102AF0003A4631462846FFF7E5FF2C894FF6F87035
:102B0000044044F007044FF68F70044044F0700412
:102B10002C81BDE8F081F0B504460D4616461F46EF
:102B20003B46324629462046FFF7CCFF208940F439
:102B300080402081F0BD0185828270470A460021D5
:102B400001884FF68F731940114301807047F0B52B
:102B50000C4615461E460021002200230189028BE7
:102B6000038C4FF6F877394021434FF6FC473A4043
:102B700040F201173A434FF6DD773B404FF6FF77BF
:102B800007EA06172F433B43018102830384F0BD0C
:102B90000A460021018B4FF68F73194011430183C0
:102BA00070470A460021018B48F6FF7319404FF623
:102BB000FF7303EA02231943018370470A46002189
:102BC000818B4FF68F7319401143818370470A46FA
:102BD0000021818B48F6FF7319404FF6FF7303EA1B
:102BE000022319438183704721B1028842F0800299
:102BF000028004E002884FF67F731A40028070471B
:102C000021B1828842F00402828004E082884FF67B
:102C1000FB731A408280704721B1828842F008021B
:102C2000828004E082884FF6F7731A4082807047F2
:102C300021B1828842F00102828004E082884FF64E
:102C4000FE731A40828070470A460021018B4FF6BE
:102C5000F77319401143018370470A460021018B25
:102C60004FF2FF7319404FF6FF7303EA0223194333
:102C7000018370470A460021818B4FF6F773194094
:102C80001143818370470A460021818B4FF2FF7305
:102C900019404FF6FF7303EA0223194381837047FB
:102CA0000A460021018B4FF6FB7319401143018343
:102CB00070470A460021018B4FF6FF3319404FF64B
:102CC000FF7303EA02231943018370470A46002178
:102CD000818B4FF6FB7319401143818370470A467D
:102CE0000021818B4FF6FF3319404FF6FF7303EA43
:102CF00002231943818370470A460021018B4FF656
:102D00007F7319401143018370470A460021018BEC
:102D1000C1F30E014FF6FF7303EA02231943018347
:102D200070470A460021818B4FF67F73194011438B
:102D3000818370470A460021818BC1F30E014FF653
:102D4000FF7303EA02231943818370470A46002177
:102D5000018C4FF6FD7319401143018470470A46F8
:102D60000021018C4FF6F77319401143018470471D
:102D70000A460021018C4FF6DF7319404FF6FF73AE
:102D800003EA02131943018470470A460021018CAB
:102D90004FF67F7319404FF6FF7303EA021319438E
:102DA000018470470A460021018C4FF6FF531940F9
:102DB0004FF6FF7303EA02231943018470470A4662
:102DC0000021018C4FF2FF7319404FF6FF7303EAA5
:102DD00002231943018470470A460021018C4DF6F5
:102DE000FF7319404FF6FF7303EA0233194301845E
:102DF000704730B5002301248C40A3B2048C9C435F
:102E00000484048C02FA01F5ADB22C43048430BD75
:102E100030B5002304248C40A3B2048C9C4304846A
:102E2000048C02FA01F5ADB22C43048430BD70B5B8
:102E30000346002000241846183001258D40ACB20E
:102E40001D8CA5431D8409B1082909D100EB61003F
:102E5000056825F0700505600568154305600EE0FE
:102E60000D1FC5F34E052844056825F4E0450560AF
:102E700005684FF6FF7606EA02263543056070BD09
:102E800021B1028842F00202028004E002884FF67B
:102E9000FD731A400280704721B1028842F004029B
:102EA000028004E002884FF6FB731A4002807047EC
:102EB00021B1828842F08002828004E082884FF64D
:102EC0007F731A408280704702884FF6F7731A406A
:102ED000028002880A430280704782884FF68F730F
:102EE0001A40828082880A438280704702894FF6A6
:102EF000F8731A40028102890A43028170470289ED
:102F00004FF67F731A40028102890A43028170479B
:102F1000818470478185704781867047018770473B
:102F200081877047A0F84010704702884FF6FF4332
:102F30001A40028002880A43028070470146888E48
:102F400070470146088F70470146888F70470146D9
:102F5000B1F8400070470146888C70470146088DE3
:102F6000704702460020138A0B4201D0012000E086
:102F700000207047CA430282704730B502460020E5
:102F800000230024158A05EA0103958905EA010456
:102F900013B10CB1012000E0002030BDCA43028211
:102FA0007047000010B50446FB48844209D1012156
:102FB0008803FFF79BF800214FF48040FFF796F855
:102FC00032E0F648844209D101214804FFF79BF81A
:102FD00000214FF40030FFF796F825E0F0488442D6
:102FE00009D101218804FFF78EF800214FF48020D9
:102FF000FFF789F818E0EB48844209D10121C804A1
:10300000FFF781F800214FF40020FFF77CF80BE078
:10301000E548844208D101210805FFF774F8002132
:103020004FF48010FFF76FF810BD2DE9F04786B020
:1030300005460E460024A24600BFA1460027B089DF
:1030400000B100BF2F462C8A4CF6FF700440F08878
:1030500004432C82AC894EF6F3100440B0883189C9
:103060000843718908430443AC81AC8A4FF6FF40A2
:103070000440B0890443AC8201A8FEF7B0FFC64803
:10308000874202D1DDF810A001E0DDF80CA0A8898C
:1030900010F4004F08D00AEBCA0000EB0A103168A8
:1030A0004900B0FBF1F807E00AEBCA0000EB0A1098
:1030B00031688900B0FBF1F86420B8FBF0F004013E
:1030C0002009642101FB1089A88910F4004F08D061
:1030D000322000EBC900B0FBF1F000F00700044320
:1030E00008E0322000EB09106421B0FBF1F000F0A1
:1030F0000F0004432C8106B0BDE8F0874FF4165151
:10310000016000218180C18001810C214181002169
:103110008181704710B502460020108A4FF2FF03EC
:1031200018400B884C8823438C882343CC88234346
:103130001843108210BD0021018041808180C18030
:10314000704721B1828942F40052828104E0828971
:103150004DF6FF731A4082817047F0B50346002494
:10316000002600250020A1F510676A3F00D100BFAE
:103170001846C1F3421401F01F06012707FA06F5AD
:10318000012C01D10C3004E0022C01D1103000E000
:1031900014301AB107682F43076002E00768AF4395
:1031A0000760F0BD1AB1838A0B43838202E0838AF1
:1031B0008B4383827047028A4FF6F0731A40028273
:1031C000028A0A430282704782894FF2FF731A40D3
:1031D000828182890A438281704721B1828942F0CB
:1031E0000202828104E082894FF6FD731A408281D7
:1031F0007047028A4FF6DF731A400282028A0A433E
:103200000282704721B1028A42F48042028204E0C5
:10321000028A4BF6FF731A4002827047C1F308021C
:103220008280704701468888C0F308007047818912
:1032300041F0010181817047028BD2B20283028B7F
:1032400042EA012202837047028B02F47F4202832A
:10325000028B0A430283704721B1828A42F0200226
:10326000828204E0828A4FF6DF731A4082827047BE
:1032700021B1828A42F01002828204E0828A4FF6F3
:10328000EF731A408282704721B1828A42F00802AD
:10329000828204E0828A4FF6F7731A408282704776
:1032A00021B1828942F40042828103E08289C2F323
:1032B0000E028281704721B1828A42F400628282CA
:1032C00004E0828A4FF2FF731A4082827047828A3A
:1032D0004FF6FB731A408282828A0A4382827047C9
:1032E00021B1828A42F00202828204E0828A4FF691
:1032F000FD731A408282704702460020B1F5007FBC
:1033000000D100BF13880B4201D0012000E0002053
:10331000704701F40072B2F5007F00D100BFCA43CC
:103320000280704770B5024600240023002500206B
:10333000A1F510666A3E00D100BFC1F3421501F04D
:103340001F03012606FA03F3012D02D196893340AB
:1033500006E0022D02D1168A334001E0968A3340FE
:103360000C12012606FA04F41688344013B10CB18D
:10337000012000E0002070BD10B500220023A1F55F
:1033800010646A3C00D100BF0A1201249440A3B229
:10339000DC43048010BD00000038014000440040C0
:1033A00000480040004C0040005000400CB5002098
:1033B000019000906B48006840F4803069490860D3
:1033C00000BF6848006800F4003000900198401C7D
:1033D0000190009818B90198B0F5A06FF1D161483B
:1033E000006810F4003F02D00120009001E00020AE
:1033F00000900098012842D15B48006840F010001E
:10340000594908600846006820F003000860084633
:10341000006840F002000860524840685149486026
:103420000846406848600846406840F4806048604C
:103430000846406820F47C1048600846406840F424
:10344000E81048600846006840F08070086000BFDF
:103450004448006810F0007FFAD04248406820F0ED
:103460000300404948600846406840F00200486058
:1034700000BF3C48406800F00C000828F9D10CBDA2
:1034800010B5FFF793FF10BD10B53648006840F047
:103490000100344908600846406834490840314911
:1034A000486008460068324908402E4908600846CE
:1034B000006820F4802008600846406820F4FE0080
:1034C00048604FF41F008860FFF7DAFF4FF000609C
:1034D0002849086010BD10B5002100200022214BB2
:1034E0005B6803F00C0121B1042906D0082928D11A
:1034F00007E0214B214C236027E01F4B1F4C23602A
:1035000023E0184B5B6803F47010164B5B6803F400
:103510008032022303EB904022B9194B4343174CEE
:1035200023600DE00F4B5B6813F4003F04D0144B95
:103530004343124C236003E00F4B43430F4C236083
:1035400003E00D4B0D4C236000BF00BF054B5B68D3
:10355000C3F303130B4CE15C084B1B68CB40074CD7
:10356000236010BD00100240002002400000FFF860
:10357000FFFFF6FE08ED00E000127A0038000020A0
:1035800000093D003C0000200648804706480047EF
:10359000FEE7FEE7FEE7FEE7FEE7FEE7FEE7FEE703
:1035A000FEE7FEE78934000831010008064C074DAC
:1035B00006E0E06840F0010394E807009847103403
:1035C000AC42F6D3FCF7B8FDF0370008103800081D
:1035D00002E008C8121F08C1002AFAD170477047DC
:1035E000002001E001C1121F002AFBD1704700003A
:1035F000C1C081C1400101C3C003800241C201C6F4
:10360000C006800741C70005C1C581C4400401CC84
:10361000C00C800D41CD000FC1CF81CE400E000AFD
:10362000C1CA81CB400B01C9C009800841C801D87B
:10363000C018801941D9001BC1DB81DA401A001E75
:10364000C1DE81DF401F01DDC01D801C41DC001494
:10365000C1D481D5401501D7C017801641D601D2FB
:10366000C012801341D30011C1D181D0401001F0AC
:10367000C030803141F10033C1F381F24032003675
:10368000C1F681F7403701F5C035803441F4003C84
:10369000C1FC81FD403D01FFC03F803E41FE01FA7B
:1036A000C03A803B41FB0039C1F981F8403800281D
:1036B000C1E881E9402901EBC02B802A41EA01EEF3
:1036C000C02E802F41EF002DC1ED81EC402C01E494
:1036D000C024802541E50027C1E781E6402600227D
:1036E000C1E281E3402301E1C021802041E001A04B
:1036F000C060806141A10063C1A381A240620066F5
:10370000C1A681A7406701A5C065806441A4006C83
:10371000C1AC81AD406D01AFC06F806E41AE01AAFA
:10372000C06A806B41AB0069C1A981A8406800787C
:10373000C1B881B9407901BBC07B807A41BA01BE72
:10374000C07E807F41BF007DC1BD81BC407C01B493
:10375000C074807541B50077C1B781B640760072FC
:10376000C1B281B3407301B1C071807041B00050EB
:10377000C190819140510193C05380524192019672
:10378000C056805741970055C19581944054019C83
:10379000C05C805D419D005FC19F819E405E005A7C
:1037A000C19A819B405B0199C0598058419801881A
:1037B000C04880494189004BC18B818A404A004EF4
:1037C000C18E818F404F018DC04D804C418C004493
:1037D000C184818540450187C0478046418601827A
:1037E000C042804341830041C1818180404000004C
:1037F00010380008000000204C000000D035000800
:103800005C3800084C00002044100000E03500083F
:103810000000000000000000000032013201000042
:1038200000000000000000005802580200000000E4
:103830000000000000000000010203040102030474
:10384000060708090204060800A24A040000000056
:0C38500000000000010203040607080944
:0400000508000131BD
:00000001FF
